S01700004763634170706C69636174696F6E332E7372656359
S11300000C942A000C9447000C9447000C9447006D
S11300100C9447000C9447000C9447000C948804FB
S11300200C9447000C9447000C9447000C94470030
S11300300C9447000C9447000C9447000C94470020
S11300400C9447000C9447000C9447000C94470010
S11300500C94470011241FBECFE5D8E0DEBFCDBF0E
S113006013E0A0E6B0E0E8E7F0E102C005900D92ED
S1130070AC30B107D9F727E0ACE0B3E001C01D9282
S1130080AE35B207E1F70E9402080C943A080C94CA
S113009000004130A1F5813089F028F08230C9F0A8
S11300A0833011F108952AB381E090E002C0880FF3
S11300B0991F6A95E2F7822B8ABB089527B381E0E2
S11300C090E002C0880F991F6A95E2F7822B87BBE4
S11300D0089524B381E090E002C0880F991F6A95C7
S11300E0E2F7822B84BB089521B381E090E002C043
S11300F0880F991F6A95E2F7822B81BB08954111FD
S113010037C0813091F028F08230D9F0833029F162
S113011008952AB381E090E002C0880F991F6A9580
S1130120E2F7809582238ABB089527B381E090E0AB
S113013002C0880F991F6A95E2F78095822387BBD6
S1130140089524B381E090E002C0880F991F6A9556
S1130150E2F78095822384BB089521B381E090E087
S113016002C0880F991F6A95E2F78095822381BBAC
S11301700895411134C0813089F028F08230C9F0EB
S1130180833011F108952BB381E090E002C0880F11
S1130190991F6A95E2F7822B8BBB089528B381E0FF
S11301A090E002C0880F991F6A95E2F7822B88BB02
S11301B0089525B381E090E002C0880F991F6A95E5
S11301C0E2F7822B85BB089522B381E090E002C060
S11301D0880F991F6A95E2F7822B82BB08954130FC
S11301E0B9F5813091F028F08230D9F0833029F1CB
S11301F008952BB381E090E002C0880F991F6A959F
S1130200E2F7809582238BBB089528B381E090E0C8
S113021002C0880F991F6A95E2F78095822388BBF4
S1130220089525B381E090E002C0880F991F6A9574
S1130230E2F78095822385BB089522B381E090E0A4
S113024002C0880F991F6A95E2F78095822382BBCA
S11302500895683060F5813079F028F08230A9F093
S11302608330E1F026C089B390E002C0959587956C
S11302706A95E2F78170089586B390E002C095957F
S113028087956A95E2F78170089583B390E002C080
S1130290959587956A95E2F78170089580B390E00B
S11302A002C0959587956A95E2F78170089580E07C
S11302B0089580E008956130A1F4813049F028F078
S11302C0823049F0833051F008958FEF8ABB08954E
S11302D08FEF87BB08958FEF84BB08958FEF81BBA9
S11302E0089561110FC0813041F028F0823039F057
S11302F0833039F008951ABA089517BA089514BAD4
S1130300089511BA0895813041F028F0823039F00F
S1130310833039F008956BBB089568BB089565BBBD
S1130320089562BB0895CF93DF93EC010E94F60514
S113033020910C0330910D03C9018C0F9D1F883E41
S113034043E0940758F42817390758F4E901C25FC9
S1130350DC4F90930D0380930C0305C0C0E0D0E004
S113036002C0C0E0D0E00E94C006CE01DF91CF9170
S1130370089508950F2EF7EFEF2EF2E0FF2EF02DE3
S1130380D4E041E06D2F80E00E94B9008701C0E015
S11303906C2F80E00E94290181110AC0F80180813C
S11303A08093F6066C2F80E00E9429018823D1F304
S11303B0CF5F0F5F1F4FC43059F740E06D2F80E0CF
S11303C00E94B900DF5FF4E0EF0EF11CD830C9F6EB
S11303D081E090E00E944607CDCF40E060E080E0FD
S11303E00E94490040E061E080E00E94490040E052
S11303F062E080E00E94490040E063E080E00E9407
S1130400490041E064E080E00E94490041E065E089
S113041080E00E94490041E066E080E00E944900DB
S113042041E067E080E00E94490040E060E080E055
S11304300E94B90040E061E080E00E94B90040E021
S113044062E080E00E94B90040E063E080E00E9446
S1130450B900089561E082E00E945B010895C2E45E
S11304608091F8069091F90601969093F90680938D
S1130470F8068091F6069091FA06981720F4909168
S11304806000891710F0811108C01092F7061092CD
S1130490F9061092F8068093FA068091FA0690E025
S11304A02091F706C89FF001C99FF00D112434E094
S11304B0239FE00DF11D1124EF59FF4F4281538119
S11304C0648175814F3F5F4F6F4F7F4F11F41092DE
S11304D0F706C89FF001C99FF00D1124EF59FF4F93
S11304E0408151812091F8063091F9064217530753
S11304F049F42091F7062F5F2093F7061092F9062E
S11305001092F8062091F706C89FF001C99FF00DDC
S1130510112434E0239FE00DF11D1124EF59FF4F06
S1130520628182E00E94830181E090E00E9446079C
S113053097CFFC010396928381832FEF3FEF34839F
S11305402383968385839087878310820895FC0193
S1130550118610860895CF93DF93FC01DB0121817E
S11305603281E9018A819B8113969C938E93129721
S11305708181928115969C938E9314978A819B8195
S1130580EC017D836C83E9017B836A8372836183DD
S11305901996FC93EE93189780818F5F8083DF9187
S11305A0CF910895CF93DF93EB01488159814F3F59
S11305B02FEF520731F4DC011796ED91FC91189757
S11305C017C0FC013396DC0115962D913C911697CA
S11305D0D9012D913C914217530750F00280F381C9
S11305E0E02DA281B3812D913C9142175307B0F7BE
S11305F0A281B381BB83AA831596DC93CE9314970F
S1130600FD83EC83D383C28399878887FC0120818F
S11306102F5F2083DF91CF910895FC01A281B381E4
S11306208481958115969C938E931497A481B581AA
S11306308281938113969C938E931297A085B185A2
S113064011968D919C911297E817F90731F48481E2
S1130650958112969C938E931197118610868C9196
S113066081508C93089531E1FC013083319722E26B
S113067020833197A3E3A0833197608331977083FC
S113068031971082319760E86083319710823197F7
S113069062E06083319763E06083319764E0608354
S11306A0319765E06083319766E06083319767E056
S11306B06083319768E06083319769E060833197A4
S11306C060E1608331973083319732E13083319731
S11306D033E13083319734E13083319735E130832E
S11306E0319736E13083319737E13083319738E100
S11306F03083319739E13083319730E23083319759
S113070031E2308331972083319723E2208331977C
S1130710408331975083319726E22083319727E233
S11307202083319728E22083319729E2208331976F
S113073020E32083319721E32083869708951BBC0F
S11307408CE78ABD8BE08EBD89B7806189BFA0919B
S11307505C07B0915D07CD91CDBFDD91DEBFFF9108
S1130760EF91DF91CF91BF91AF919F918F917F9145
S11307706F915F914F913F912F911F910F91FF9036
S1130780EF90DF90CF90BF90AF909F908F907F902D
S11307906F905F904F903F902F901F900F900FBEDF
S11307A00F90089581E008950F920FB6F8940F9278
S11307B01F9211242F923F924F925F926F927F92D9
S11307C08F929F92AF92BF92CF92DF92EF92FF925D
S11307D00F931F932F933F934F935F936F937F9345
S11307E08F939F93AF93BF93CF93DF93EF93FF9335
S11307F0A0915C07B0915D070DB60D920EB60D92F7
S11308000E949607A0915C07B0915D07CD91CDBF82
S1130810DD91DEBFFF91EF91DF91CF91BF91AF9159
S11308209F918F917F916F915F914F913F912F9104
S11308301F910F91FF90EF90DF90CF90BF90AF90FA
S11308409F908F907F906F905F904F903F902F90EC
S11308501F900F900FBE0F9008950F920FB6F8944B
S11308600F921F9211242F923F924F925F926F9298
S11308707F928F929F92AF92BF92CF92DF92EF922C
S1130880FF920F931F932F933F934F935F936F9315
S11308907F938F939F93AF93BF93CF93DF93EF9304
S11308A0FF93A0915C07B0915D070DB60D920EB653
S11308B00D920E94FC050E949607A0915C07B091DE
S11308C05D07CD91CDBFDD91DEBFFF91EF91DF914B
S11308D0CF91BF91AF919F918F917F916F915F91D4
S11308E04F913F912F911F910F91FF90EF90DF90C7
S11308F0CF90BF90AF909F908F907F906F905F90BC
S11309004F903F902F901F900F900FBE0F9008951F
S11309100E942D041895CF93DF93EC01E0915C07BE
S1130920F0915D079383828380910307909104077C
S1130930C817D90768F460915C0770915D078091CE
S1130940190790911A076E5F7F4F0E94D20217C059
S113095060915C0770915D0780911B0790911C0763
S11309606E5F7F4F0E94D2028091F5029091F60251
S1130970C817D90720F4D093F602C093F502DF918B
S1130980CF9108954F925F926F927F928F929F9230
S1130990AF92BF92CF92DF92EF92FF920F931F9389
S11309A0CF93DF935C014B01EA01290181E290E0DE
S11309B00E9493013C01009709F4DBC0C114D104E7
S11309C009F0D2C0CE010E949301F301908F878B6E
S11309D0009721F4C3010E94B901CBC0AE0165EABE
S11309E070E00E9424082197F3018789908DC80F35
S11309F0D91F48E050E0B401C30149960E942B0876
S1130A00F30110A2102F053008F014E0F301168B47
S1130A106301F2E0CF0ED11CC6010E94A702C301FC
S1130A200C960E94A702F3017186608685E090E02F
S1130A30811B910995878487738A628AA201B50113
S1130A40CE010E943303F30191838083E114F10406
S1130A5019F0F701718260820FB6F8940F928091B9
S1130A6005078F5F8093050780915C0790915D0770
S1130A70892BA1F570925D0760925C078091050750
S1130A808130D9F5CFE2D7E00F2EFCE5EF2EF7E069
S1130A90FF2EF02DCE010E9499022996CE15DF0576
S1130AA0C9F786E297E00E9499028DE197E00E94DF
S1130AB0990280E197E00E94990287E097E00E9402
S1130AC0990286E297E090931C0780931B078DE1BF
S1130AD097E090931A07809319070FC0809100073D
S1130AE081110BC0E0915C07F0915D0786890817BE
S1130AF020F070925D0760925C07F3018689909103
S1130B000207981710F4809302079091FB069F5FE9
S1130B109093FB0690910107981710F480930107B6
S1130B2090E09C01220F331F220F331F220F331F2B
S1130B30820F931FB601815D984F0E94AB020F9004
S1130B400FBE80910007882359F0E0915C07F09173
S1130B505D078689801730F40E94D40381E00AC0BF
S1130B6081E008C081E006C0FC01D08EC78AC601BE
S1130B7035CF8FEFDF91CF911F910F91FF90EF90C1
S1130B80DF90CF90BF90AF909F908F907F906F90A9
S1130B905F904F900895AF92BF92CF92DF92EF9201
S1130BA0FF920F93A12CB12CC12CD12CE12CF12C50
S1130BB000E020E030E045E550E067E073E086E6E1
S1130BC097E00E94C204813049F4F89480930007AE
S1130BD010920407109203070E949F030F91FF9045
S1130BE0EF90DF90CF90BF90AF9008958091FF0673
S1130BF08F5F8093FF0608950F931F93CF93DF9326
S1130C008091FF068111B2C080910307909104077F
S1130C1001969093040780930307809103079091B2
S1130C200407892B99F580911B0790911C0720914B
S1130C30190730911A0730931C0720931B079093D0
S1130C401A07809319078091FC068F5F8093FC0636
S1130C50E0911B07F0911C078081811107C08FEF81
S1130C609FEF9093F6028093F50210C0E0911B076A
S1130C70F0911C070580F681E02D0680F781E02DB8
S1130C80828193819093F6028093F5022091030769
S1130C90309104078091F5029091F60228173907E4
S1130CA008F469C0E0911B07F0911C078081882338
S1130CB099F0E0911B07F0911C070580F681E02D67
S1130CC0C681D7818A819B812091030730910407D3
S1130CD028173907F8F419C08FEF9FEF9093F602A5
S1130CE08093F50248C0E0911B07F0911C07058032
S1130CF0F681E02DC681D7818A819B8120910307EB
S1130D00309104072817390728F49093F60280934A
S1130D10F50231C08E010E5F1F4FC8010E940D0302
S1130D208C899D89892B21F0CE010C960E940D039C
S1130D308E8990910107981710F48093010790E031
S1130D409C01220F331F220F331F220F331F820FE8
S1130D50931FB801815D984F0E94AB02E0911B077D
S1130D60F0911C0780818111BECFB6CF8091FE0621
S1130D708F5F8093FE06DF91CF911F910F910895AD
S1130D80CF92DF92EF92FF920F931F93CF93DF9353
S1130D900FB6F8940F928091FF0681508093FF065E
S1130DA08091FF06811164C080910507811132C0D2
S1130DB062C0D7011596ED91FC911697C681D78133
S1130DC0CE010C960E940D038E010E5F1F4FC801C9
S1130DD00E940D038E8990910107981710F4809357
S1130DE0010790E09C01220F331F220F331F220FB3
S1130DF0331F820F931FB801815D984F0E94AB028D
S1130E00E0915C07F0915D079E898689981758F0F8
S1130E10DC2C09C0D12C0F2EF0E1EF2EF7E0FF2ED1
S1130E20F02DCC24C394F70180818111C2CF80912D
S1130E30FE06882381F08091FE06882399F00E94A3
S1130E40FC058091FE0681508093FE068091FE068B
S1130E508111F5CF07C0F1E0DF1621F08091FD0686
S1130E60813041F41092FD060E94D40381E003C056
S1130E7080E001C080E00F900FBEDF91CF911F9101
S1130E800F91FF90EF90DF90CF900895CF93DF9371
S1130E90EC01892BB1F00E94F60580910307909133
S1130EA00407C80FD91F80915C0790915D070296D3
S1130EB00E940D03CE010E948B040E94C006811182
S1130EC002C00E94D403DF91CF91089507E017E098
S1130ED0809106078823E1F30E94F605D801CC919E
S1130EE00E94C006CC23A1F30FB6F8940F92D80148
S1130EF01596ED91FC911697C681D781CE01029685
S1130F000E940D038091050781508093050780910D
S1130F1006078150809306070F900FBE8F89988D26
S1130F200E94B901CE010E94B901D2CF8091FF067F
S1130F30811113C08091010790E0FC01EE0FFF1FA7
S1130F40EE0FFF1FEE0FFF1F8E0F9F1FFC01E15DD1
S1130F50F84F8081882329F01BC081E08093FD062F
S1130F6008958091010781508093010780910107C2
S1130F7090E0FC01EE0FFF1FEE0FFF1FEE0FFF1FAF
S1130F808E0F9F1FFC01E15DF84F8081882349F398
S1130F908091010790E09C01220F331F220F331F21
S1130FA0220F331F280F391FD901A15DB84F1196A5
S1130FB0ED91FC9112970280F381E02D1296FC933F
S1130FC0EE9311972E5C384FE217F30729F4228130
S1130FD03381FD0132832183FC01EE0FFF1FEE0FED
S1130FE0FF1FEE0FFF1F8E0F9F1FFC01E15DF84FE7
S1130FF00180F281E02D8681978190935D07809333
S11310005C0708950E942A020E94ED01A12CB12CD4
S1131010C12CD12CE12CF12C03E020E030E04AEF8C
S113102050E060E070E08AEB91E00E94C20420E0AE
S113103030E04AEF50E060E070E08FE292E00E941E
S1131040C2040E94CB05FFCFDC0101C06D93415067
S11310505040E0F70895FB01DC014150504048F056
S113106001900D920020C9F701C01D9241505040DB
S10B1070E0F70895F894FFCFA6
S11310780A010000000000FFFFFFFF00000000005D
S11310880000000000000000000000000000000054
S11310980000000000000000000000000000000044
S11310A80000000000000000000000000000000034
S11310B8000000F401FF00000000000000FFFFFF33
S11310C8FF00000000000000000000000000000015
S11310D80000000000000000000000000000000004
S11310E800000000000000000000000000000000F4
S11310F80000000000FA00010000000200000004E3
S1131108000000080000001000000020000000405B
S113111800000080000000FFFFFFFF000000000047
S113112800000000000000000000000000000000B3
S113113800000000000000FA0080000000400000E9
S11311480020000000100000000800000004000057
S1131158000200000001000000FFFFFFFF00000084
S11311680000000000000000000000000000000073
S1131178000000000000000000FA0007000000382A
S1131188000000C10000000E000000700000008391
S11311980000001C000000E0000000FFFFFFFF004B
S11311A80000000000000000000000000000000033
S11311B800000000000000000000002C01180000DE
S11311C800240000004200000081000000FFFFFF2F
S11311D8FF00000000000000000000000000000004
S11311E800000000000000000000000000000000F3
S11311F8000000000000000000000000002C018135
S1131208000000420000002400000018000000FF55
S1131218FFFFFF00000000000000000000000000C5
S113122800000000000000000000000000000000B2
S1131238000000000000000000000000000000FAA8
S11312480001000000020000000400000008000083
S11312580010000000200000004000000080000092
S113126800400000002000000010000000080000FA
S113127800040000000200000001000000FFFFFF5E
S1131288FF2C010100000003000000070000000F0C
S11312980000001F0000003F0000007F000000FF66
S11312A8000000FFFFFFFF00000000000000000036
S11312B80000000000000000000000000000000022
S11312C8000000E803FF00000000000000FFFFFF2B
S11312D8FF00000000000000000000000000000003
S11312E800000000000000000000000000000000F2
S11312F800000000000000000000000000000000E2
S11313080000000000FFFF0704010A0805020009A5
S10F131806030B0C0D0E0F49444C45005D
S9030000FC
